:100000000C940F030C94D7180C9408190C943919FC
:100010000C946A190C949B190C94CC190C94FD192E
:100020000C942E1A0C9426060C944E060C9476060C
:100030000C9440030C9440030C9440030C94400334
:100040000C9440030C9440030C9440030C94400324
:100050000C9440030C9440030C9440030C945F1ADE
:100060000C9440030C949B1D0C94D11D0C944003E4
:100070000C9440030C9440030C9440030C944003F4
:100080000C9440030C9440030C9440030C944003E4
:100090000C94481E0C947E1E0C9440030C94400358
:1000A0000C9440030C9440030C9440030C944003C4
:1000B0000C9440030C9440030C9440030C944003B4
:1000C0000C9440030C9440030C9440030C94F51ED4
:1000D0000C942B1F0C9440030C9440030C9440038D
:1000E0000C9440038304D204CA049D04F5033A052A
:1000F0001D053A053A057304F004500453043A050B
:1001000024059304C40393043A05260409043A051C
:100110003A05BF043A053A053A053A053A053A0563
:100120003A053A053A053A053A053A053A053A05D7
:1001300014053A053A056304DA043A053A053A0526
:100140003A059304F20393043A053904DB03DD0313
:10015000E303E503E703E903EB03EF03ED03C30C5C
:10016000C70C9A0C9D0CA10CA40CA80CAB0CAE0CEB
:10017000B20CB60CBA0CBD0CB913BE13C313C81322
:10018000CD13D213D713621479149014A714BE148C
:10019000D514EC148C1856185E186A18771898182D
:1001A000A518C918BF18C118C318C518CB18CD1881
:1001B0007B1B7E1B6D1B711B771BB51B821B861B5C
:1001C0008C1B901B941B9A1B9E1BA21BB51BA81B70
:1001D000AC1BB01B0C94DD030C94C3180C949E1B39
:1001E0000C9490140C94941B0C94C3130C94271728
:1001F0000C94251C0C945E180C94B01B0C949E0659
:100200000C94E3030C94C30C0C94FB1D0C9463043A
:100210000C94D2130C94D7130C944C170C94A81E66
:100220000C9442170C9450040C948C1B0C941117D2
:100230000C94E9030C94B51B0C94A0100C94C518F5
:100240000C9473040C94BE130C94C70C0C945304BC
:100250000C94551F0C94EB030C9467170C94CD1859
:100260000C949D040C94B2060C9462140C94C40378
:100270000C9493040C94AC1B0C943A050C94BD0C98
:100280000C9423170C94051E0C94A7140C94321C88
:100290000C94CD130C94DA040C9417170C94AB0C3B
:1002A0000C94D5140C9426040C94CA040C94BA0C27
:1002B0000C94B21E0C94B20C0C94A81B0C94AE06B9
:1002C0000C9456180C94F0040C949A1B0C9414057E
:1002D0000C9444050C9410130C941D050C943904D3
:1002E0000C945F1F0C949D0C0C947E1B0C948C182A
:1002F0000C94BE140C94ED030C94A21B0C94821B62
:100300000C94E5030C9477180C94B9130C94401CCE
:100310000C949A0C0C94BF180C94C1180C94D41C17
:100320000C94771B0C9483040C94541C0C94981814
:100330000C94CB180C94AE0C0C94A80C0C94F203F7
:100340000C9479140C94540B0C94BF040C94A518C1
:100350000C946D1B0C9409040C94D2040C94B515E8
:100360000C94B60C0C94EC140C94B21C0C941B174B
:100370000C941F170C94EF030C94B21F0C94C91823
:100380000C94DD150C94711B0C94F5030C94C8139C
:100390000C94E7030C9459170C94901B0C94A40C28
:1003A0000C946A180C94A10C0C947B1B0C94DB032A
:1003B0000C94861B0C94240541542B4349505348FC
:1003C00055540041542B435042533D22534D22007B
:1003D00041542B434D47463D310041542B434D453D
:1003E000453D300041542B434C49503D3100415470
:1003F0002B4950523D004552524F523A2053494DDD
:1004000039303020646F65736E277420616E7377A6
:1004100065722E20436865636B20706F776572206C
:10042000616E642073657269616C2070696E7320FF
:10043000696E2047534D2E6370700041542B495014
:10044000523D393630300D003131353230300041D7
:10045000542B4950523D393630300D003537363047
:10046000300041542B4950523D393630300D003365
:10047000383430300041542B4950523D39363030F9
:100480000D0031393230300041542B4950523D3942
:100490003630300D00393630300041542B4950523F
:1004A0003D393630300D00343830300041542B495E
:1004B00050523D393630300D003234303000415426
:1004C0002B4950523D393630300D0031323030003A
:1004D000547279696E6720746F20666F726365204D
:1004E00074686520626175642D7261746520746F33
:1004F00020393630300A0041542B4950523D00001B
:10050000000A0B02090C0D0E08070304010000008D
:1005100000000000000000000000000000000000DB
:100520000000000000000000000000121110000098
:1005300000000000000000000000000000000000BB
:1005400000000000000102102020080810204010C8
:100550002040800201020108040201010204081087
:1005600020408080402010080402018004020180A5
:1005700040201008040201080402010102040810CE
:100580002040800102040810204080050505050771
:100590000508080808020202020A0A0808040404FE
:1005A000040101010101010101030303030303032A
:1005B00003040707070C0C0C0C0C0C0C0C020202B9
:1005C0000206060606060606060B0B0B0B0B0B0BAC
:1005D0000B00002200250028002B002E00310034E3
:1005E0000002010000050108010B010000210024A8
:1005F0000027002A002D0030003300010100000414
:100600000107010A010044059E06540BA0101117B2
:1006100027174217051EB21E5F1FAE064C17112486
:100620001FBECFEFD1E2DEBFCDBF00E00CBF17E0B1
:10063000A0E0B2E0EEE2F9E400E00BBF02C00790F8
:100640000D92A43EB107D9F72CE0A4EEB7E001C0AB
:100650001D92A737B207E1F716E0CAE1D6E000E045
:1006600006C022970109FE010BBF0E943322C6304B
:10067000D10780E00807A9F70E94A31F0C948524E6
:100680000C940000CF92DF92EF92FF920F931F9392
:10069000DA011D921D921D921C921397693008F089
:1006A0004EC0FC01860F8E1709F447C09081992334
:1006B00009F445C00D911D912D913C91139794E043
:1006C000000F111F221F331F9A95D1F70D931D9311
:1006D0002D933C931397919140ED490F4A3040F48C
:1006E000C92EDD24C7FCD09490E3C91AD10817C0E5
:1006F0004FEB490F463040F4C92EDD24C7FCD0949F
:1007000097E3C91AD1080BC04FE9490F4630B8F436
:10071000C92EDD24C7FCD09497E5C91AD108EE2470
:10072000D7FCE094FE2CC00ED11EE21EF31ECD922B
:10073000DD92ED92FC921397B6CF81E001C080E08C
:100740001F910F91FF90EF90DF90CF9008951F932E
:10075000CF93DF93CDB7DEB728970FB6F894DEBFFF
:100760000FBECDBF80910E08992787FD9095A92FC8
:10077000B92FFC01E354F109E433F10508F07AC123
:10078000EE58FF4F0C942D2284EE97E00E94F40661
:10079000892B09F06FC180910F08992787FD9095EB
:1007A000A92FB92FFC01F097E930F105C0F4EA5503
:1007B000FF4F0C942D2262E001C063E084EE97E0CD
:1007C0000E94D70857C166E0F9CF68E0F7CF69E02B
:1007D000F5CF6BE0F3CF6CE0F1CF6DE0EFCF66E0EB
:1007E00072E02DC16DE172E02AC1AE014F5F5F4F33
:1007F00062E08FE098E00E944203882309F43AC146
:10080000698184EE97E00E94B60640E150E0682FCF
:10081000B1C0AE014B5F5F4F62E08FE098E00E9495
:100820004203882309F426C1AE014F5F5F4F62E0A7
:1008300081E198E00E944203882309F41BC14981A9
:100840006D8184EE97E00E94BA06F4C06EE372E018
:100850008CE99AE00E94152040E150E061E070E0F0
:100860008CE99AE00E94F92040E150E060E070E0FD
:1008700012C060E472E08CE99AE00E94152040E129
:1008800050E061E070E08CE99AE00E94F92040E1DC
:1008900050E064E070E08CE99AE00E940121EAC037
:1008A00062E472E0CCC084EE97E00E94F406892BEB
:1008B00009F0E0C061E070E084EE97E00E942F094B
:1008C0006EE572E062C084EE97E00E94F406892B28
:1008D00009F0D0C061E070E084EE97E00E942F093B
:1008E00065E772E052C084EE97E00E94F406892B1F
:1008F00009F0C0C062E070E084EE97E00E942F092A
:100900006DE972E042C084EE97E00E94F406892B04
:1009100009F4B0C060E070E084EE97E00E942F0917
:100920006FEB72E032C084EE97E00E94F40601970C
:1009300009F0A0C067ED72E082C06DE284EE97E03E
:100940000E94B60680FD02C010E001C014E0982F9E
:10095000907C09F01860982F987109F0106285FD5D
:1009600010686EE977E08CE99AE00E94152040E17A
:1009700050E0612F8CE99AE00E942D217BC084EE2B
:1009800097E00E94F10669EE72E08CE99AE00E941D
:10099000152050C080910F08833409F06BC060E0CF
:1009A00070E064C080910F08833409F063C065E093
:1009B00070E05CC0AE014F5F5F4F68E08FE098E091
:1009C0000E944203882309F455C041E0BE016F5FD5
:1009D0007F4F84EE97E00E94BE066BEF72E015C079
:1009E000AE014F5F5F4F68E08FE098E00E944203E6
:1009F000882309F43FC041E0BE016F5F7F4F84EE62
:100A000097E00E94D0066AE073E08CE99AE00E94C9
:100A1000152049815A816B817C8120E130E08CE98D
:100A20009AE00E94192106C063E070E084EE97E02E
:100A30000E942F096BE276E002C06BE173E08CE963
:100A40009AE00E94442016C0AE014F5F5F4F62E003
:100A50008FE098E00E944203882361F069817A81E7
:100A600084EE97E00E94F80664E070E084EE97E080
:100A70000E942F0928960FB6F894DEBF0FBECDBF97
:100A8000DF91CF911F91089563E070E08AE098E0D4
:100A90000C942D1726E040E052EC61E070E08CE908
:100AA0009AE00E94391D8CE99AE00E94B21C6BE228
:100AB00076E08CE99AE00E94442080E8EEE0F8E0DD
:100AC000DF011D928A95E9F765E373E08CE99AE00E
:100AD0000E9444206CE084EE97E00C94D70884EEEA
:100AE00097E00E945B098CE99AE00E94251C181689
:100AF000190644F58CE99AE00E94401C20910C08EC
:100B000030910D082F37310554F4F901E25FF74FAA
:100B10008D3089F410828EE098E00E94A70380E86F
:100B2000EEE0F8E0DF011D928A95E9F710920D08DA
:100B300010920C08089580832F5F3F4F30930D086B
:100B400020930C08089561E085E30E94EF1B61E0AB
:100B500085E30E94B61B8CB580618CBD8CB580642A
:100B60008CBD61E084E30E94B61B61E083E30C94DA
:100B7000B61B20E001972FEF8F3F9207D9F708951A
:100B8000EF92FF920F931F93CF93DF93EC018B8D26
:100B9000EE85FF859D8581FF04C08081892329F42E
:100BA00045C08081892309F041C08B899C890E94BE
:100BB000B90508E010E0EE24E394F12C8D899E89BC
:100BC0000E94B905EE85FF8580819D85892311F0FE
:100BD000FE2803C08E2D8095F822EE0C01501109DD
:100BE00069F78F89988D0E94B9058B8D81FDF094EE
:100BF00080918F0820918E0890E001968F7399273D
:100C000030E08217930779F0E0918F08F0E0E05729
:100C1000F74FF08280918F0890E001968F739927AB
:100C200080938F0803C08B8D81608B8FDF91CF9174
:100C30001F910F91FF90EF9008958091D0089091AF
:100C4000D108009711F00C94C00508951F920F92DF
:100C50000FB60F9211240BB60F922F933F934F9321
:100C60005F936F937F938F939F93AF93BF93EF9314
:100C7000FF930E941D06FF91EF91BF91AF919F914D
:100C80008F917F916F915F914F913F912F910F9035
:100C90000BBE0F900FBE0F901F9018951F920F92D2
:100CA0000FB60F9211240BB60F922F933F934F93D1
:100CB0005F936F937F938F939F93AF93BF93EF93C4
:100CC000FF930E941D06FF91EF91BF91AF919F91FD
:100CD0008F917F916F915F914F913F912F910F90E5
:100CE0000BBE0F900FBE0F901F9018951F920F9282
:100CF0000FB60F9211240BB60F922F933F934F9381
:100D00005F936F937F938F939F93AF93BF93EF9373
:100D1000FF930E941D06FF91EF91BF91AF919F91AC
:100D20008F917F916F915F914F913F912F910F9094
:100D30000BBE0F900FBE0F901F90189563E070E0F0
:100D400085E899E00E942D1788ED98E00E94AF1782
:100D50006BE276E082ED98E00C94E02182ED98E081
:100D60000C94722181E080938709089588E899E0C6
:100D70000C94760B88E899E00C94CF0B0F931F939B
:100D8000413059F4FB01008111812281338140E01F
:100D900060E088E899E00E94B90E1F910F910895D4
:100DA000EF92FF920F931F93CF93DF93E42E85E092
:100DB000841780F0EB01F12CFE1461F00991199178
:100DC0002991399140E06F2D88E899E00E940F0F3A
:100DD000F394F2CFDF91CF911F910F91FF90EF909D
:100DE0000895FC0112A20895FC0180A191A108952B
:100DF000FC0175A364A308950F931F9382E00E94E2
:100E0000B2180FEF17E020E030E040E060E088E843
:100E100099E00E94B90E0FEF17E020E030E040E0CB
:100E200061E088E899E00E94B90E00E010E09801C6
:100E300040E060E088E899E00E940F0F00E010E0D9
:100E4000980140E061E088E899E00E940F0F00E01F
:100E500010E0980140E062E088E899E00E940F0FFE
:100E600000E010E0980140E063E088E899E00E942B
:100E70000F0F00E010E0980140E064E088E899E09E
:100E80000E940F0F00E010E0980140E065E088E864
:100E900099E00E940F0F1F910F9108950F931F93D8
:100EA0000FEF17E020E030E040E060E088E899E0F4
:100EB0000E94B90E0FEF17E020E030E040E061E063
:100EC00088E899E00E94B90E00E010E0980140E047
:100ED00060E088E899E00E940F0F00E010E09801C0
:100EE00040E061E088E899E00E940F0F00E010E028
:100EF000980140E062E088E899E00E940F0F00E06E
:100F000010E0980140E063E088E899E00E940F0F4C
:100F100000E010E0980140E064E088E899E00E9479
:100F20000F0F00E010E0980140E065E088E899E0EC
:100F30000E940F0F1F910F9108950F931F93CF934E
:100F4000DF93EC010FEF17E020E030E040E060E0DD
:100F500088E899E00E94B90E0FEF17E020E030E03A
:100F600040E061E088E899E00E94B90E0CA11DA163
:100F700020E030E040E060E088E899E00E940F0F58
:100F800000E010E0980140E061E088E899E00E940C
:100F90000F0F00E010E0980140E062E088E899E07F
:100FA0000E940F0F00E010E0980140E063E088E845
:100FB00099E00E940F0F00E010E0980140E064E02B
:100FC00088E899E00E940F0F00E010E0980140E0EF
:100FD00065E088E899E00E940F0F84E090E099A313
:100FE00088A3DF91CF911F910F910895CF93DF9345
:100FF000EB0163E375E08CE99AE00E9415204881DB
:1010000059816A817B8120E130E08CE99AE00E947D
:1010100019216AE375E08CE99AE00E94152040E10D
:1010200050E06E818CE99AE00E94262162E475E02E
:101030008CE99AE00E9415208E8181116AC067E4D4
:1010400075E08CE99AE00E94152040E150E0688547
:101050008CE99AE00E94262160E575E08CE99AE02F
:101060000E94152040E150E069858CE99AE00E94D9
:10107000262160E575E08CE99AE00E94152040E1A8
:1010800050E06A858CE99AE00E94262160E575E0CF
:101090008CE99AE00E94152040E150E06B858CE9D4
:1010A0009AE00E94262160E575E08CE99AE00E94B2
:1010B000152040E150E06C858CE99AE00E942621E1
:1010C00060E575E08CE99AE00E94152040E150E06F
:1010D0006D858CE99AE00E94262160E575E08CE937
:1010E0009AE00E94152040E150E06E858CE99AE07C
:1010F0000E94262160E575E08CE99AE00E941520A7
:1011000040E150E06F858CE99AE0DF91CF910C943B
:101110002D21DF91CF910895EF92FF920F93FB0164
:101120007B0188E0E80EF11C40815181628173816E
:101130000781248188E899E00E94E50F0F91FF90D4
:10114000EF900895CF93DF93EC01862F4FED57E09A
:1011500060E070E0488359836A837B831E8298E055
:101160009F8392E0988791E099878A8762E575E08E
:101170008CE99AE00E941520BE01CE010E94F6077C
:10118000BE01CE01DF91CF910C948C08CF93DF93F9
:10119000EB019B01285F3F4FAB01495F5F4F88E840
:1011A00099E00E9415101E82DF91CF9108950F9350
:1011B0001F93CF93DF93EC01162F85E090E099A366
:1011C00088A36BA3612F88E899E00E949F0E81118C
:1011D00033C06BE575E08CE99AE00E94442000E0A2
:1011E00010E0980140E060E088E899E00E94B90EC4
:1011F00000E010E0980140E061E088E899E00E949A
:10120000B90E42E050E062EB76E082E00E944118C5
:101210008E01005F1F4FB801CE010E94C6081092D8
:101220008709B801CE010E94C60810928709DF9194
:10123000CF911F910F9108956CE675E08CE99AE0CB
:101240000E9444206EE775E08CE99AE00E944420F9
:1012500064E670E080E090E00E94D81AB3CF0F936C
:101260001F93CF93DF938C01EB016330710534F44E
:101270006130710574F4209741F018C06430710535
:1012800081F064F06530710589F4C8010E94FC06A4
:101290000AC0FC0163A10E94D70805C00E944E0746
:1012A00002C00E949D07F801D1A3C0A3DF91CF9196
:1012B0001F910F9108952F923F924F925F926F92DC
:1012C0007F928F929F92AF92BF92CF92DF92EF92D6
:1012D000FF920F931F93CF93DF9300D000D0CDB731
:1012E000DEB79E838D83DC0190968D919C919197C2
:1012F000833091053CF4813091050CF061C0892B5D
:1013000051F0B9C18430910509F47BC10CF4C4C01B
:10131000059709F0B0C10FEF17E020E030E040E0A2
:1013200060E088E899E00E94B90E0FEF17E020E036
:1013300030E040E061E088E899E00E94B90E00E00A
:1013400010E0980140E060E088E899E00E940F0F0B
:1013500000E010E0980140E061E088E899E00E9438
:101360000F0F00E010E0980140E062E088E899E0AB
:101370000E940F0F00E010E0980140E063E088E871
:1013800099E00E940F0F00E010E0980140E064E057
:1013900088E899E00E940F0F00E010E0980140E01B
:1013A00065E088E899E00E940F0F6D817E81605FA3
:1013B0007F4F8D819E810E94C608109287095BC174
:1013C00080918709882309F456C10E94A91A6B01EC
:1013D0007C01109287090D811E81005F1F4FB801AB
:1013E0008D819E810E94C608ED81FE818089918950
:1013F000A289B38981159840A105B10510F464E76D
:1014000001C064E58CE99AE00E941720AD81BE819D
:1014100050964D915D916D917C91539720E130E014
:101420008CE99AE00E94192140E150E0ED81FE81B3
:1014300067898CE99AE00E942621AD81BE8156968B
:101440008C91882369F0ED81FE8182A18823E1F0EF
:1014500044E050E0B6018CE99AE00E94442114C0B7
:10146000B12CAD81BE8157968C91B81660F7ED8195
:10147000FE81EB0DF11D40E150E0608D8CE99AE0BA
:101480000E942621B394EDCF6BE276E08CE99AE0DE
:101490000E944420B801D3C060E975E08CE99AE06D
:1014A0000E944420C12CD12C76012D803E80B0E1D9
:1014B0002B0E311C9701860140E060E088E899E03E
:1014C0000E940F0F63EC75E08CE99AE00E941520F2
:1014D00040E150E0B6018CE99AE00E944A215301B4
:1014E0004201D301C201845D9E4FAF4FBF4F89833C
:1014F0009A83AB83BC83D501C40184199509A609DD
:10150000B7098C329140A105B10508F05DC080910A
:101510008709882309F453C0B1018D819E810E94FF
:10152000C6081092870989809A80AB80BC806FECD6
:1015300075E08CE99AE00E94442064E176E08CE951
:101540009AE00E94152067E276E08CE99AE00E941A
:101550001520AD81BE8150964D915D916D917C912C
:10156000539720E130E08CE99AE00E94602100E08E
:1015700010E0ED81FE81878990E008171907D4F407
:1015800067E276E08CE99AE00E941520ED81FE8109
:10159000E00FF11F40E150E0608D8CE99AE00E947D
:1015A00026216AE276E08CE99AE00E9415200F5F1E
:1015B0001F4FDFCF8CE99AE00E941E209CCF0E9433
:1015C000A91A4B015C0197CF2FEFC21AD20AE20A87
:1015D000F20AC11488E0D806E104F10419F02401EC
:1015E000350168CFAD81BE8193966C919397CD0103
:1015F0000E94D70882E090E0ED81FE8191A380A354
:101600003AC00E94A91A693E73408105910540F0D5
:10161000AD81BE8194966C919497CD010E94A208F1
:10162000ED81FE8180899189A289B389883E9740A6
:10163000A105B10501F56D817E81605F7F4F8D81D0
:101640009E8126960FB6F894DEBF0FBECDBFDF9108
:10165000CF911F910F91FF90EF90DF90CF90BF90AF
:10166000AF909F908F907F906F905F904F903F9042
:101670002F900C94F60726960FB6F894DEBF0FBE97
:10168000CDBFDF91CF911F910F91FF90EF90DF9031
:10169000CF90BF90AF909F908F907F906F905F9012
:1016A0004F903F902F90089565E388E899E00C945F
:1016B000910E8EBD00000DB407FEFDCF8EB50895CE
:1016C000CF93DF93EC0160E088890E94EF1B80ECF0
:1016D0000E94590B61E088890E94EF1B6AE070E06C
:1016E00080E090E0DF91CF910C94D81A1F93CF93B4
:1016F000DF93EC01162F60E088890E94EF1B83E0E6
:101700000E94590B812F0E94590B80E00E94590BB7
:10171000182F61E088890E94EF1B812FDF91CF9104
:101720001F910895CF92DF92EF92FF920F931F9334
:10173000CF93DF931F921F92CDB7DEB78C01F62EA9
:10174000E22E60E0FC01808949835A830E94EF1BEE
:1017500083E00E94590B8F2D0E94590B4981C42EA2
:101760005A81D52EF12CFE1459F0F8E0FF1641F005
:1017700080E00E94590BF60181936F01F394F3CF3F
:1017800061E0F80180890F900F90DF91CF911F9158
:101790000F91FF90EF90DF90CF900C94EF1BEF92A2
:1017A000FF921F93CF93DF931F92CDB7DEB77C01DB
:1017B000162F60E0FC01808949830E94EF1B82E0C4
:1017C0000E94590B812F0E94590B4981842F0E943E
:1017D000590B61E0F70180890F90DF91CF911F9144
:1017E000FF90EF900C94EF1BCF92DF92EF92FF925D
:1017F0000F931F93CF93DF931F921F92CDB7DEB746
:101800008C01E62EF22E60E0FC01808949835A8328
:101810000E94EF1B82E00E94590B8E2D0E94590BF3
:101820004981E42EC42E5A81D52E8C2D8E198F1508
:1018300030F4F60181916F010E94590BF6CF61E0FF
:10184000F80180890F900F90DF91CF911F910F9138
:10185000FF90EF90DF90CF900C94EF1BEF92FF92F0
:101860001F93CF93DF931F921F92CDB7DEB77C01FA
:10187000162F60E0FC0180892A8349830E94EF1BB8
:1018800085E00E94590B812F0E94590B4981842FBA
:101890000E94590B2A81822F0E94590B61E0F701A7
:1018A00080890F900F90DF91CF911F91FF90EF9063
:1018B0000C94EF1B1F93CF93DF93EC0160E08889BA
:1018C0000E94EF1B80EA0E94590B80E00E94590B96
:1018D000182F61E088890E94EF1B812FDF91CF9143
:1018E0001F9108951F93CF93DF93EC01162F262F9E
:1018F00040EE6FE00E942E0C6FE0CE010E94760B4E
:10190000982F907E81E0911301C080E0DF91CF910C
:101910001F9108950F931F93CF93DF93EC01462FF0
:1019200050E0FA013197ED30F10558F5E155FF4FE0
:101930000C942D2217E80FEF02C015E801EF4FE0DD
:1019400029C017E80FEF02C017E80AEF47E022C0EE
:1019500017E80FEF05C017E80AEF02C016E800EF1E
:1019600043E018C017E80AEF41E014C015E801EFA2
:1019700041E410C016E800EF02C012E800ED40E0BC
:1019800009C081E016C017E80FEF4FE303C017E866
:101990000FEF4FE16AE2CE010E94CF0B402F69E2C8
:1019A000CE010E94CF0B412F68E2CE010E94CF0BE7
:1019B00080E0DF91CF911F910F9108951F93CF93F6
:1019C000DF93EC0110E340E0612FCE010E94CF0BCA
:1019D00060E1610F40E0CE010E94CF0B60E2610F39
:1019E00040E0CE010E94CF0B1F5F1E3361F740E045
:1019F00060E6CE010E94CF0B40E060E7CE01DF91B0
:101A0000CF911F910C94CF0B0F931F93CF93DF9324
:101A1000EC01062F0E94600B60E8CE010E94720C60
:101A2000182F882319F06CE276E035C066E476E082
:101A30008CE99AE00E941520602FCE010E948A0C4A
:101A4000882319F064E676E026C066E776E08CE944
:101A50009AE00E941520CE010E94DE0C43E06BE26A
:101A6000CE010E94CF0B24E044E660E6CE010E9446
:101A70002E0C20E040E660E7CE010E942E0C60E0D4
:101A8000CE010E94720C182F882319F06BE876E0C3
:101A900002C066EA76E08CE99AE00E941520812F68
:101AA000DF91CF911F910F9108950F931F93CF93C3
:101AB000DF9300D01F92CDB7DEB74130B1F40C8375
:101AC0001B83890122273327502F5C71402F4370DD
:101AD00078E0579F400D112448604A8355E01695E1
:101AE00007955A95E1F709830DC0A80123E05695A3
:101AF00047952A95E1F749830295000F007E0A83F6
:101B00001C821B8224E0AE014F5F5F4F0E94F40BEA
:101B10000F900F900F900F90DF91CF911F910F9129
:101B20000895EF92FF920F931F93CF93DF9300D00E
:101B30001F92CDB7DEB77A018901FA011082F9014F
:101B4000108211821282138224E0AE014F5F5F4F38
:101B50000E94920B2A813981822F90E045E0959571
:101B600087954A95E1F7F8E03F9F800D911D11247C
:101B7000AA2797FDA095BA2FF80180839183A283AD
:101B8000B38323FF25C062E0880F991FAA1FBB1FE4
:101B90006A95D1F72370820F911DA11DB11DBA2F37
:101BA000A92F982F88272B81820F911DA11DB11D70
:101BB000BA2FA92F982F88272C81820F911DA11D44
:101BC000B11D80839183A283B38381E0F701808379
:101BD0000F900F900F900F90DF91CF911F910F9169
:101BE000FF90EF900895FF920F931F93CF93DF9391
:101BF000EC01F62EAC014A5F5F4F65E06F0D2D8161
:101C00000E94F40B8E85813019F48D8180648D8360
:101C100064E06F0D4D81CE010E94CF0B09811A81C6
:101C20002B813C8148816F2DCE010E94550DDF91A3
:101C3000CF911F910F91FF9008950F931F93CF9312
:101C4000DF93EC01162F9C012F5F3F4FAC010E94E8
:101C5000910D6FEF610FCE010E94760B082F64E0AB
:101C6000610FCE010E94760B282F8D8303FF03C0E6
:101C700081E08E8701C01E862F702D83AE014A5FE2
:101C80005F4F65E0610FCE01DF91CF911F910F9102
:101C90000C94920B615028E048E00C942E0C9F921B
:101CA000AF92BF92CF92DF92EF92FF920F931F936A
:101CB000CF93DF9300D0CDB7DEB76C017B0180E31B
:101CC000898380E48A8380E58B83FB0110828E0107
:101CD0000F5F1F4F5E01F4E0AF0EB11CF801919051
:101CE0008F01692DC6010E94760B982F987083FD95
:101CF00004C09394F701908204C00A151B0571F784
:101D000092E0892F0F900F900F90DF91CF911F914C
:101D10000F91FF90EF90DF90CF90BF90AF909F908A
:101D20000895CF93DF93EC01862F688B61E00E94CA
:101D3000B61B61E08889DF91CF910C94EF1BCF93A4
:101D4000DF9300D0CDB7DEB76B8389839A830E947F
:101D5000A3056B8189819A810E94040D91E0811114
:101D600001C090E0892F0F900F900F90DF91CF91DD
:101D700008958F929F92BF92CF92DF92EF92FF923F
:101D80000F931F93CF93DF931F92CDB7DEB74C0114
:101D9000B62E6801790164EC76E08CE99AE049831B
:101DA0000E94152060E8C4010E94720C182F49811E
:101DB000882319F06CE276E018C0B11004C09701D6
:101DC000860160E206C081E0B81206C09701860174
:101DD00064E2C4010E94550D60E0C4010E94720CCF
:101DE000182F882341F06AED76E08CE99AE00E9492
:101DF0001520812F07C063EF76E08CE99AE00E94FE
:101E0000152080E00F90DF91CF911F910F91FF90EF
:101E1000EF90DF90CF90BF909F908F900895AF92FA
:101E2000BF92CF92DF92EF92FF920F931F93CF93C7
:101E3000DF931F921F92CDB7DEB75C01562F68016A
:101E4000790168E077E08CE99AE04A8359830E943F
:101E5000152060E8C5010E94720C182F4A81598133
:101E6000882319F06CE276E02FC05230B1F040F4D4
:101E7000552379F05130F9F49701860164E018C0D8
:101E8000543099F070F05530B1F49701860168E153
:101E90000FC09701860160E00BC09701860168E0E2
:101EA00007C09701860160E103C09701860164E1E4
:101EB000C5010E94550D60E0C5010E94720C182FEB
:101EC000882341F060E277E08CE99AE00E941520D7
:101ED000812F07C06CE477E08CE99AE00E9415201E
:101EE00080E00F900F90DF91CF911F910F91FF90A5
:101EF000EF90DF90CF90BF90AF900895EF92FF9258
:101F00000F93CF93DF93FC0120834183528363833C
:101F100074830583D70180E090E02D91EF01C80F15
:101F2000D91F2E83019688309105B9F780E0DF91A3
:101F3000CF910F91FF90EF900895EF92FF920F9342
:101F40001F93CF93DF931F92CDB7DEB78C01E12CA7
:101F5000F12CBE016F5F7F4FC8010E944F0E9FEFB3
:101F6000E91AF90A823029F482E3E816F10489F7C4
:101F700023C092E3E916F104F9F06981C8010E94D7
:101F8000F30D6981C8010E944A0EE12CF12C8FEFFC
:101F9000E81AF80A6981C8010E94760B83FF06C01F
:101FA00092E3E916F10499F787E007C082E3E816A7
:101FB000F104D1F380E001C086E00F90DF91CF9172
:101FC0001F910F91FF90EF900895EF92FF920F9362
:101FD000CF93DF93EC010E947E0FCE01DF91CF9172
:101FE0000F91FF90EF900C949D0FCF93DF93EC0136
:101FF0000E945A0C80FF07C061E6CE010E941D0EB0
:1020000020E041E008C081FF0CC061E7CE010E94E2
:102010001D0E20E042E06CE2CE010E942E0C80E01A
:1020200001C084E0DF91CF910895CF92DF92EF92CB
:10203000FF920F931F93CF93DF931F921F92CDB701
:10204000DEB76C017B018A0129833A830E94F50F78
:1020500029813A81811128C0D60115969C91159746
:10206000F801908311964D915D916D917C9114973B
:10207000D7014D935D936D937C931397F90120E005
:1020800030E0D60115964C9150E02417350774F4D2
:102090002830310559F0D601A20FB31F16969C9136
:1020A00091932F5F3F4FEDCFF80110820F900F906B
:1020B000DF91CF911F910F91FF90EF90DF90CF9024
:1020C0000895FC01EF52FF4F2081222331F0029648
:1020D0000E946B2421E0892B09F420E0822F0895CF
:1020E000FF920F931F93CF93DF93F62E21E02617D5
:1020F00008F18C0103531F4FF8012083EC01C452F7
:10210000DF4F63E677E0CE010E9425166F2D70E069
:102110004AE050E0CE010E94091767E677E0CE0161
:102120000E94251664EF71E080E090E00E94D81ACA
:10213000F8011082DF91CF911F910F91FF900895C8
:1021400063E070E089E999E00C942D17CF93DF9359
:102150002CEA37E0FC0131832083EC01C452DF4FCD
:10216000CE010E94F21540E855E260E070E0CE0139
:10217000DF91CF910C94DD156F927F928F929F9299
:10218000AF92BF92CF92DF92EF92FF920F931F9385
:10219000CF93DF93EC018C010E521F4FF801808129
:1021A000811133C0CE0184529F4F0E941F179E01A0
:1021B00029523F4F7901892BF1F40E94A91AF701A6
:1021C000C080D180E280F3806C197D098E099F095F
:1021D0003497C080D180E12CF12C6C157D058E05E3
:1021E0009F0598F032978081FE01E80FF11D128261
:1021F00084E0782E0BC00E94A91AF70160837183D6
:102200008283938381E0F8018083712CF8018081BF
:10221000813009F05EC07E01FCEDEF0EF11CC701BC
:102220000E941F17682E882349F00E94A91AFE01F8
:10223000E952FF4F608371838283938300E010E053
:102240006E0121EDC20ED11C5E013FECA30EB11C4C
:10225000601609F1F6018081883CB8F4F5018080B0
:102260009180C7010E941B17F4018083F5018081D2
:102270009181019691838083F60180818F5F8083B5
:10228000FE01E80FF11D128203C0C7010E941B1757
:102290000F5F1F4FDDCF0E94A91AFE01E952FF4FC9
:1022A0000081118122813381601B710B820B930BA2
:1022B00032970081118120E030E0601771078207BA
:1022C000930738F034978081C80FD11D1A82772484
:1022D0007394872DDF91CF911F910F91FF90EF9015
:1022E000DF90CF90BF90AF909F908F907F906F9036
:1022F0000895CF93DF93EC01FC01EE52FF4F108263
:102300003196718360833296518340830E94A91A6B
:10231000FE01E952FF4F60837183828393831A82A7
:102320003897CE010296918380833296108286522E
:102330009F4FDF91CF910C942317CF93DF93EC0144
:102340000E947911CE010E94BC108823D9F3DF913D
:10235000CF9108954F925F926F927F928F929F924A
:10236000AF92BF92CF92DF92EF92FF920F931F93A3
:10237000CF93DF931F92CDB7DEB72C016B015A01CB
:102380004901F12C2FEF3C018CED680E711CFE14FD
:10239000F9F0FF2031F064EF71E080E090E00E94FE
:1023A000D81AB601C3010E945416A401B501C20196
:1023B0000E949D11813041F4B801C2010E94611058
:1023C000811105C020E001C02FEFF394E0CF21E0A0
:1023D00048E853E168EE73E0C20129830E949D1131
:1023E0002981822F0F90DF91CF911F910F91FF9044
:1023F000EF90DF90CF90BF90AF909F908F907F90A5
:102400006F905F904F900895CF92DF92EF920F936D
:102410001F93CF93DF936C01EC01C353DF4F88818F
:10242000811122C081E0888392E0E92E08E917E05B
:1024300022E330E048EE53E069E677E0C6010E940F
:10244000AA112AE0E22E05E717E028EE33E048EE75
:1024500053E06CE777E0C6010E94AA1191E0813059
:1024600009F090E0188201C09FEF892FDF91CF9192
:102470001F910F91EF90DF90CF9008956F927F9210
:102480008F929F92AF92BF92CF92DF92EF92FF9284
:102490000F931F93CF93DF93EC016B015A01490116
:1024A000F12C8FEF3E019CED690E711CFE14F1F0D2
:1024B000FF2031F064EF71E080E090E00E94D81AD4
:1024C000B601C3010E944216A401B501CE010E94CB
:1024D0009D11813039F4B801CE010E94611088232A
:1024E00011F003C08FEFF394E1CF81E0DF91CF9142
:1024F0001F910F91FF90EF90DF90CF90BF90AF9022
:102500009F908F907F906F900895CF92DF92EF927F
:102510000F931F93CF93DF93EC016C018DECC80EEA
:10252000D11C81E0F601808335E0E32E08E917E055
:1025300022E330E044EF51E064EE73E0CE010E940C
:102540003E1222E330E044EF51E06AED73E0CE0149
:102550000E943E1222E330E044EF51E060ED73E070
:10256000CE010E943E12F6011082CE010E9404129A
:1025700022E330E048EE53E063EC73E0CE010E94CA
:102580003E1203E917E022E330E044EF51E068EB4C
:1025900073E0CE010E943E12DF91CF911F910F9107
:1025A000EF90DF90CF900895CF92DF92EF920F934C
:1025B0001F93CF93DF93EC01662359F0613041F50F
:1025C000DF91CF911F910F91EF90DF90CF900C94FE
:1025D00085126C018DECC80ED11C81E0F601808360
:1025E00045E0E42E08E917E022E330E048EE53E04E
:1025F0006BE977E0CE010E94AA1122E330E044EFBC
:1026000051E060EA77E0CE010E94AA11F601108243
:10261000DF91CF911F910F91EF90DF90CF900895B0
:102620002F923F924F925F926F927F928F929F92E2
:10263000AF92BF92CF92DF92EF92FF920F931F93D0
:10264000CF93DF93CDB7DEB727970FB6F894DEBFF1
:102650000FBECDBF6C012A013B014C018DEC880EF1
:10266000911C81E0F4018083C60184529F4F9F83B7
:102670008E830E94DD15160192E0290E311CF601B1
:10268000E153FF4FFB83EA8331822082C6018553E9
:102690009F4F9D838C8381E090E0EC81FD8191834D
:1026A0008083A3E0AA2EB12CF5E0EF2E08E917E015
:1026B00024E630E044EF51E065EA77E0C6010E948D
:1026C000AA118F3FA1F461E088E00E94EF1B60EB4C
:1026D00074E080E090E00E94D81A60E088E00E94F8
:1026E000EF1B60E177E280E090E00E94D81A48EEAC
:1026F00053E068EE73E0C6010E949D11F1E0AF1A4D
:10270000B10891F6E5E0EE2E08E917E024E630E0A6
:1027100044EF51E065EA77E0C6010E94AA118130DA
:1027200021F0F12C81E0898303C0FF24F394198206
:1027300075E0E72E08E917E024E630E044EF51E0C9
:1027400065EA77E0C6010E94AA1181118DC0F110DF
:10275000AEC1A12CB12CF5013197E730F10520F481
:10276000E454FF4F0C942D2240EB54E060E070E005
:1027700022C040E659E060E070E01DC040EC52E14C
:1027800060E070E018C040E855E260E070E013C01F
:1027900040E05BE460E070E00EC040E056E960E0DD
:1027A00070E009C040E051EE60E070E004C040E03D
:1027B00052EC61E070E08E819F810E94DD1564E63D
:1027C00070E080E090E00E94D81A65E0E62E08E90B
:1027D00017E024E630E044EF51E065EA77E0C60117
:1027E0000E94AA11813091F567EF74E08E819F817C
:1027F0000E9400162AE030E0B301A2018E819F8181
:102800000E94BF1667E677E08E819F810E942516A1
:1028100064EF71E080E090E00E94D81AB301A20159
:102820008E819F810E94DD1564E670E080E090E07B
:102830000E94D81A24E630E044EF51E065EA77E0E0
:10284000C6010E94AA11FF24F39408C09FEFA91AA1
:10285000B90AE8E0AE16B10409F07DCFF4011082A8
:10286000EA81FB8131822082F981F13009F021C1B6
:10287000F1101DC160ED74E08CE99AE00E943220F5
:10288000A12CB12CF5013197E730F10520F4ED537F
:10289000FF4F0C942D2240EB54E060E070E08E81FD
:1028A0009F810E94DD1568EE73E080E090E00E9459
:1028B000D81A6BEC74E08CE99AE00E9432206EEB3F
:1028C00074E0A0C040E659E060E070E08E819F8136
:1028D0000E94DD1568EE73E080E090E00E94D81A57
:1028E00069EB74E08CE99AE00E9432206CEA74E0B3
:1028F00089C040EC52E160E070E08E819F810E94CF
:10290000DD1568EE73E080E090E00E94D81A67EA77
:1029100074E08CE99AE00E9432206AE974E072C0A7
:1029200040E855E260E070E08E819F810E94DD15F5
:1029300068EE73E080E090E00E94D81A65E974E0E8
:102940008CE99AE00E94322068E874E05BC040E0C5
:102950005BE460E070E08E819F810E94DD1568EE8F
:1029600073E080E090E00E94D81A62E874E08CE99D
:102970009AE00E94322065E774E044C040E056E9E6
:1029800060E070E08E819F810E94DD1568EE73E04B
:1029900080E090E00E94D81A6FE674E08CE99AE03B
:1029A0000E94322062E674E02DC040E051EE60E00B
:1029B00070E08E819F810E94DD1568EE73E080E0FB
:1029C00090E00E94D81A6CE574E08CE99AE00E94CD
:1029D00032206FE474E016C040E052EC61E070E039
:1029E0008E819F810E94DD1568EE73E080E090E0AB
:1029F0000E94D81A68E474E08CE99AE00E943220C0
:102A00006BE374E08E819F810E94001668EE73E094
:102A100080E090E00E94D81A40E855E260E070E063
:102A20008E819F810E94DD1568EE73E080E090E06A
:102A30000E94D81A55E0E52E08E917E024E630E0B8
:102A400044EF51E065EA77E0C6010E94AA1168EE02
:102A500073E080E090E00E94D81A48EE53E068EE00
:102A600073E0C6010E949D118FEFA81AB80A98E082
:102A7000A916B10409F006CF66EF73E08CE99AE07D
:102A80000E94322061E088E00E94EF1B60EB74E05E
:102A900080E090E00E94D81A60E088E00E94EF1B7E
:102AA00060E177E280E090E00E94D81A43C0FF2402
:102AB000F394F4011082FF20D9F042E350E062E386
:102AC00070E0C6010E949D1160E0C6010E94D41210
:102AD000C6010E94851260E0C6010E94701082E06B
:102AE00090E0EC81FD819183808381E090E024C0BF
:102AF00040E052EC61E070E08E819F810E94DD1524
:102B000068EE73E080E090E00E94D81A6EEE73E009
:102B10008E819F810E9400162AE030E0B301A2015D
:102B20008E819F810E94BF1667E677E08E819F812C
:102B30000E94251680E090E027960FB6F894DEBF3D
:102B40000FBECDBFDF91CF911F910F91FF90EF90FE
:102B5000DF90CF90BF90AF909F908F907F906F90BD
:102B60005F904F903F902F900895CF92DF92EF9219
:102B7000FF920F931F93CF93DF936C017A01EB01C8
:102B8000E60EF71E00E010E0CE15DF0561F069915A
:102B9000D601ED91FC910280F381E02DC6011995DB
:102BA000080F191FF1CFC801DF91CF911F910F912D
:102BB000FF90EF90DF90CF90089526E089E39BE0AF
:102BC0000C94391DDB010D900020E9F7AD01415057
:102BD0005109461B570BDC01ED91FC910480F581F6
:102BE000E02D199422EB37E0FC013183208326E0AD
:102BF00040E855E260E070E089E39BE00C94391D09
:102C0000EF92FF920F931F93CF93DF938C01FB0101
:102C1000C0E0D0E064917F018FEFE81AF80A6623E4
:102C200061F0D801ED91FC910280F381E02DC801A3
:102C30001995C80FD91FF701EDCFCE01DF91CF91C4
:102C40001F910F91FF90EF9008950C94E215DC0115
:102C5000ED91FC910280F381E02D19940F931F9365
:102C6000CF93DF93EC016DE00E9427168C016AE0A0
:102C7000CE010E942716800F911FDF91CF911F91E7
:102C80000F9108950F931F93CF93DF93EC010E9450
:102C900000168C01CE010E942E16800F911FDF912D
:102CA000CF911F910F9108950F931F93CF93DF93AF
:102CB000EC010E94E2158C01CE010E942E16800FBD
:102CC000911FDF91CF911F910F9108958F929F9245
:102CD000AF92BF92CF92DF92EF92FF920F931F932A
:102CE000CF93DF93CDB7DEB7A1970FB6F894DEBFD1
:102CF0000FBECDBF7C01C42EE52FCB01D22E19A271
:102D000021E02D1510F02AE0D22E8E010F5D1F4F0D
:102D10008D2C912CA12CB12C6C2D7E2FA501940112
:102D20000E940B228C2DD29E801911240150110972
:102D30008A3014F4805D01C0895CF801808321151C
:102D400031054105510521F0C22EE32FCA01E4CF20
:102D5000B801C7010E94E215A1960FB6F894DEBF34
:102D60000FBECDBFDF91CF911F910F91FF90EF90DC
:102D7000DF90CF90BF90AF909F908F900895CF92AB
:102D8000DF92EF92FF920F931F93CF93DF93EC01AB
:102D90006A017B012115310579F4E881F98102800E
:102DA000F381E02D642FDF91CF911F910F91FF9060
:102DB000EF90DF90CF9019942A303105E9F477FF36
:102DC0001AC06DE20E9427168C0144275527BA01CC
:102DD0004C195D096E097F092AE0CE010E94661632
:102DE000800F911FDF91CF911F910F91FF90EF9076
:102DF000DF90CF9008952AE0B701A601CE01DF91C0
:102E0000CF911F910F91FF90EF90DF90CF900C9496
:102E100066169A01AB01662757FD6095762F0C94D4
:102E2000BF1663E070E08BE999E00C942D1789E3FD
:102E30009BE00C94D41C89E39BE00C94401C89E338
:102E40009BE00C94251C89E39BE00C94B21C63E08E
:102E500070E08DE999E00C942D17FC01718360837B
:102E60000895CF93DF93EC0102960E94A61088ECA0
:102E700097E09983888382ED97E09B838A83DF9133
:102E8000CF91089563E070E081E89AE00E942D17E9
:102E90008FE999E00C94311788EC97E09093A009A2
:102EA00080939F0982ED97E09093A2098093A109F6
:102EB0000895DC01ED91FC91369720813181280F36
:102EC000391FC90184529F4F0E941B170895BF925A
:102ED000CF92DF92EF92FF920F931F93CF93DF93E6
:102EE000EC016B017A0100E010E00E151F0544F5BE
:102EF000E881F9813697808191818C0F9D1F8452E2
:102F00009F4F0E941F1718161906BCF4E881F9811B
:102F10003697808191818C0F9D1F84529F4F0E9414
:102F20001B17B82E18164CF4682F8CE99AE00E94F3
:102F30001720F601E00FF11FB0820F5F1F4FD5CFB2
:102F4000C701F7FE02C080E090E0DF91CF911F91B2
:102F50000F91FF90EF90DF90CF90BF900895FC010C
:102F600010821182138212821482158216821782B5
:102F70001086128611861386148615861686178685
:102F8000118A108A128A138A148A158A168A108E58
:102F9000178A118E128E138E148E158E12A213A202
:102FA00014A215A216A217A210AA11AA12AA13AA55
:102FB00014AA15AA16AE17AEDC01AC5BBF4F1D926A
:102FC0001D921D921C92139718961C9211961C929A
:102FD000119716961D921D921D921C9219971E967E
:102FE0001C9211961C92119716961D921D921D927D
:102FF0001C9219971E961C9211961C921197169668
:103000001D921D921D921C9219971E961C9211964C
:103010001C92119716961D921D921D921C92199743
:103020001E961C9211961C92509682E08C931196DB
:103030001C9211961C9211961C92119611961C923C
:103040001E92129611961C921E9212961D921D921D
:103050001D921C92139714961D921D921D921C9204
:10306000139714961D921D921D921C9213971496FD
:103070001D921D921D921C921397EA57FF4F1082CA
:103080000895883008F06DC0E82FF0E0EE0FFF1FC4
:10309000ED57F54F7183608390E0FC013197E73085
:1030A000F10590F5E653FF4F0C942D2280916900B5
:1030B0008C7F842B80936900E89A08958091690041
:1030C000440F551F440F551F837F842B8093690045
:1030D000E99A08958091690074E0440F551F7A952C
:1030E000E1F78F7C842B80936900EA9A08958091A0
:1030F000690066E0440F551F6A95E1F78F73842BD2
:1031000080936900EB9A089580916A008C7F842BEC
:1031100080936A00EC9A089580916A00440F551FCD
:10312000440F551F837F842B80936A00ED9A089586
:1031300080916A0024E0440F551F2A95E1F78F7CA7
:10314000842B80936A00EE9A089580916A0096E03D
:10315000440F551F9A95E1F78F73842B80936A0073
:10316000EF9A0895883010F5482F50E0FA01319712
:10317000E730F10560F4EF52FF4F0C942D22E898F0
:103180000DC0E9980BC0EA9809C0EB9807C0EC980D
:1031900005C0ED9803C0EE9801C0EF98E82FF0E06D
:1031A000EE0FFF1FED57F54F1182108208951F9209
:1031B0000F920FB60F9211240BB60F922F933F93DD
:1031C0004F935F936F937F938F939F93AF93BF932F
:1031D000EF93FF938091870A9091880A892B29F0B9
:1031E000E091870AF091880A1995FF91EF91BF91BC
:1031F000AF919F918F917F916F915F914F913F918F
:103200002F910F900BBE0F900FBE0F901F9018952F
:103210001F920F920FB60F9211240BB60F922F939D
:103220003F934F935F936F937F938F939F93AF934E
:10323000BF93EF93FF938091890A90918A0A892B1B
:1032400029F0E091890AF0918A0A1995FF91EF918E
:10325000BF91AF919F918F917F916F915F914F91AE
:103260003F912F910F900BBE0F900FBE0F901F90AC
:1032700018951F920F920FB60F9211240BB60F9252
:103280002F933F934F935F936F937F938F939F936E
:10329000AF93BF93EF93FF9380918B0A90918C0A29
:1032A000892B29F0E0918B0AF0918C0A1995FF91F6
:1032B000EF91BF91AF919F918F917F916F915F91AE
:1032C0004F913F912F910F900BBE0F900FBE0F901B
:1032D0001F9018951F920F920FB60F9211240BB6E4
:1032E0000F922F933F934F935F936F937F938F939F
:1032F0009F93AF93BF93EF93FF9380918D0A90912B
:103300008E0A892B29F0E0918D0AF0918E0A199589
:10331000FF91EF91BF91AF919F918F917F916F91AD
:103320005F914F913F912F910F900BBE0F900FBE69
:103330000F901F9018951F920F920FB60F921124A5
:103340000BB60F922F933F934F935F936F937F939F
:103350008F939F93AF93BF93EF93FF938091830AD3
:103360009091840A892B29F0E091830AF091840AD4
:103370001995FF91EF91BF91AF919F918F917F919F
:103380006F915F914F913F912F910F900BBE0F90D6
:103390000FBE0F901F9018951F920F920FB60F92AD
:1033A00011240BB60F922F933F934F935F936F931C
:1033B0007F938F939F93AF93BF93EF93FF938091EE
:1033C000850A9091860A892B29F0E091850AF0916F
:1033D000860A1995FF91EF91BF91AF919F918F91BF
:1033E0007F916F915F914F913F912F910F900BBE05
:1033F0000F900FBE0F901F9018951F920F920FB64F
:103400000F9211240BB60F922F933F934F935F931C
:103410006F937F938F939F93AF93BF93EF93FF939C
:1034200080918F0A9091900A892B29F0E0918F0A60
:10343000F091900A1995FF91EF91BF91AF919F91F3
:103440008F917F916F915F914F913F912F910F904D
:103450000BBE0F900FBE0F901F9018951F920F92EA
:103460000FB60F9211240BB60F922F933F934F93E9
:103470005F936F937F938F939F93AF93BF93EF93DC
:10348000FF938091910A9091920A892B29F0E09103
:10349000910AF091920A1995FF91EF91BF91AF9126
:1034A0009F918F917F916F915F914F913F912F915C
:1034B0000F900BBE0F900FBE0F901F9018951F928C
:1034C0000F920FB60F9211242F933F938F939F93D8
:1034D000AF93BF938091940A9091950AA091960A18
:1034E000B091970A3091930A23E0230F2D3720F4EF
:1034F0000196A11DB11D05C026E8230F0296A11D4E
:10350000B11D2093930A8093940A9093950AA093F7
:10351000960AB093970A8091980A9091990AA0917F
:103520009A0AB0919B0A0196A11DB11D8093980A39
:103530009093990AA0939A0AB0939B0ABF91AF9176
:103540009F918F913F912F910F900FBE0F901F90E1
:1035500018952FB7F8946091940A7091950A80910C
:10356000960A9091970A2FBF08953FB7F8948091DB
:10357000980A9091990AA0919A0AB0919B0A26B54F
:10358000A89B05C02F3F19F00196A11DB11D3FBF9B
:103590006627782F892F9A2F620F711D811D911D2B
:1035A00042E0660F771F881F991F4A95D1F708954B
:1035B000CF92DF92EF92FF92CF93DF936B017C016A
:1035C0000E94B51AEB01C114D104E104F10489F0A1
:1035D0000E94F6210E94B51A6C1B7D0B683E734059
:1035E00090F381E0C81AD108E108F108C851DC4F16
:1035F000EACFDF91CF91FF90EF90DF90CF900895C9
:10360000789484B5826084BD84B5816084BD85B5BD
:10361000826085BD85B5816085BDEEE6F0E0808184
:1036200081608083E1E8F0E01082808182608083A5
:10363000808181608083E0E8F0E080818160808328
:10364000E1EBF0E0808184608083E0EBF0E080815A
:1036500081608083E1E9F0E0808182608083808105
:1036600081608083E0E9F0E0808181608083E1EA2D
:10367000F0E0808182608083808181608083E0EAE5
:10368000F0E0808181608083E1E2F1E0808182600E
:103690008083808181608083E0E2F1E080818160CD
:1036A0008083EAE7F0E080818460808380818260AB
:1036B0008083808181608083808180688083109294
:1036C000C100089590E0FC013197E231F10508F066
:1036D0004CC0E852FF4F0C942D22809180008F77D0
:1036E00003C0809180008F7D809380000895809139
:1036F0008000877FF9CF84B58F7702C084B58F7D36
:1037000084BD08958091B0008F7703C08091B00090
:103710008F7D8093B0000895809190008F7707C0CF
:10372000809190008F7D03C080919000877F80936F
:10373000900008958091A0008F7707C08091A0002D
:103740008F7D03C08091A000877F8093A0000895A3
:10375000809120018F7707C0809120018F7D03C069
:1037600080912001877F809320010895CF93DF937C
:1037700090E0FC01EB5BFA4F2491FC01E557FA4F16
:103780008491882349F190E0880F991FFC01E5514D
:10379000FA4FA591B4918F529A4FFC01C591D491E3
:1037A0009FB7611108C0F8948C91209582238C9367
:1037B000888182230AC0623051F4F8948C91322FB0
:1037C000309583238C938881822B888304C0F8945E
:1037D0008C91822B8C939FBFDF91CF9108950F9393
:1037E0001F93CF93DF931F92CDB7DEB7282F30E022
:1037F000F901E150FB4F8491F901EB5BFA4F149111
:10380000F901E557FA4F04910023C9F0882321F00C
:1038100069830E94621B6981E02FF0E0EE0FFF1FB9
:10382000EF52FA4FA591B4919FB7F8948C91611122
:1038300003C01095812301C0812B8C939FBF0F90F3
:10384000DF91CF911F910F910895FC01818D228D01
:1038500090E0805C9F4F821B910960E470E00E94C1
:10386000F7210895FC01918D828D981731F0828D9A
:10387000E80FF11D858D90E008958FEF9FEF08957B
:10388000FC01918D828D981761F0828DDF01A80F68
:10389000B11D5D968C91928D9F5F9F73928F90E08A
:1038A00008958FEF9FEF08958BEF9DE1892B41F0F5
:1038B00080E090E0892B21F00E94FB1D811125C042
:1038C00088EA9EE1892B41F080E090E0892B21F08D
:1038D0000E94A81E81111CC085E59FE1892B41F043
:1038E00080E090E0892B21F00E94551F811113C0C8
:1038F00080E090E0892BA1F080E090E0892B81F0BE
:103900000E94000081110AC008950E940000D8CFD3
:103910000E940000E1CF0E940000EACF0C9400005A
:103920000895FC01848DDF01A80FB11DA35ABF4F7C
:103930002C91848D90E001968F739927848FA689AE
:10394000B7892C93A089B1898C9180648C93938DD5
:10395000848D981306C00288F389E02D80818F7DC5
:1039600080830895CF93DF93EC01888D8823C9F07D
:10397000EA89FB89808185FD05C0A889B9898C9178
:1039800086FD0FC00FB607FCF5CF808185FFF2CF13
:10399000A889B9898C9185FFEDCFCE010E94911C39
:1039A000E7CFDF91CF910895CF92DF92FF920F93EF
:1039B0001F93CF93DF931F92CDB7DEB76C01DC016D
:1039C0005B969C915B975C968C915C97981307C073
:1039D0005096ED91FC915197808185FD32C0F601A2
:1039E000038D10E00F5F1F4F0F731127F02EF601AC
:1039F000848DF81211C00FB607FCF9CFD60150968E
:103A0000ED91FC915197808185FFF1CFC6016983CB
:103A10000E94911C6981EBCF838DE80FF11DE35A61
:103A2000FF4F6083D6015B960C935B975296ED91A6
:103A3000FC91539780818062808381E058968C93BB
:103A40000DC0D6015696ED91FC9157976083509624
:103A5000ED91FC91519780818064808381E090E0BA
:103A60000F90DF91CF911F910F91FF90DF90CF903A
:103A70000895BF92CF92DF92EF92FF92CF93DF93A0
:103A8000EC016A017B01B22EE889F98982E080832A
:103A9000411581EE580761057105A1F060E079E0FC
:103AA0008DE390E0A70196010E940B22215031097D
:103AB000410951095695479537952795211580E17C
:103AC000380798F0E889F989108260E874E88EE197
:103AD00090E0A70196010E940B2221503109410973
:103AE00051095695479537952795EC85FD85308387
:103AF000EE85FF852083188EEC89FD89B082EA89E6
:103B0000FB89808180618083EA89FB89808188606C
:103B10008083EA89FB89808180688083EA89FB89C8
:103B200080818F7D8083DF91CF91FF90EF90DF9038
:103B3000CF90BF9008951F920F920FB60F9211244D
:103B40000BB60F922F938F939F93EF93FF93E09178
:103B5000AC0AF091AD0A8081E091B20AF091B30A0B
:103B600082FD12C090818091B50A8F5F8F73209182
:103B7000B60A821751F0E091B50AF0E0E456F54F2D
:103B8000958F8093B50A01C08081FF91EF919F913D
:103B90008F912F910F900BBE0F900FBE0F901F9023
:103BA00018951F920F920FB60F9211240BB60F9219
:103BB0002F933F934F935F936F937F938F939F9335
:103BC000AF93BF93EF93FF938CE99AE00E94911C0F
:103BD000FF91EF91BF91AF919F918F917F916F91E5
:103BE0005F914F913F912F910F900BBE0F900FBEA1
:103BF0000F901F9018958CE99AE00E94251C21E0F7
:103C0000892B09F420E0822F089510929F0A1092C8
:103C10009E0A88EE93E0A0E0B0E08093A00A909323
:103C2000A10AA093A20AB093A30A88ED97E090930B
:103C30009D0A80939C0A85EC90E09093A90A80935A
:103C4000A80A84EC90E09093AB0A8093AA0A80ECD7
:103C500090E09093AD0A8093AC0A81EC90E0909351
:103C6000AF0A8093AE0A82EC90E09093B10A809301
:103C7000B00A86EC90E09093B30A8093B20A109257
:103C8000B50A1092B60A1092B70A1092B80A0895AF
:103C90001F920F920FB60F9211240BB60F922F9313
:103CA0008F939F93EF93FF93E091490BF0914A0B11
:103CB0008081E0914F0BF091500B82FD12C09081FA
:103CC0008091520B8F5F8F732091530B821751F0AD
:103CD000E091520BF0E0E75CF44F958F8093520B2C
:103CE00001C08081FF91EF919F918F912F910F9053
:103CF0000BBE0F900FBE0F901F9018951F920F9242
:103D00000FB60F9211240BB60F922F933F934F9340
:103D10005F936F937F938F939F93AF93BF93EF9333
:103D2000FF9389E39BE00E94911CFF91EF91BF916B
:103D3000AF919F918F917F916F915F914F913F9143
:103D40002F910F900BBE0F900FBE0F901F901895E4
:103D500089E39BE00E94251C21E0892B09F420E0E7
:103D6000822F089510923C0B10923B0B88EE93E04B
:103D7000A0E0B0E080933D0B90933E0BA0933F0BEF
:103D8000B093400B88ED97E090933A0B8093390BFA
:103D90008DEC90E09093460B8093450B8CEC90E07B
:103DA0009093480B8093470B88EC90E090934A0BDC
:103DB0008093490B89EC90E090934C0B80934B0BD4
:103DC0008AEC90E090934E0B80934D0B8EEC90E03C
:103DD0009093500B80934F0B1092520B1092530BF9
:103DE0001092540B1092550B08951F920F920FB61C
:103DF0000F9211240BB60F922F938F939F93EF93F3
:103E0000FF93E091E60BF091E70B8081E091EC0BE2
:103E1000F091ED0B82FD12C090818091EF0B8F5FCE
:103E20008F732091F00B821751F0E091EF0BF0E0CF
:103E3000EA52F44F958F8093EF0B01C08081FF9180
:103E4000EF919F918F912F910F900BBE0F900FBE0E
:103E50000F901F9018951F920F920FB60F9211247A
:103E60000BB60F922F933F934F935F936F937F9374
:103E70008F939F93AF93BF93EF93FF9386ED9BE058
:103E80000E94911CFF91EF91BF91AF919F918F91F3
:103E90007F916F915F914F913F912F910F900BBE4A
:103EA0000F900FBE0F901F90189586ED9BE00E941B
:103EB000251C21E0892B09F420E0822F089510921F
:103EC000D90B1092D80B88EE93E0A0E0B0E080937D
:103ED000DA0B9093DB0BA093DC0BB093DD0B88ED3A
:103EE00097E09093D70B8093D60B85ED90E090935D
:103EF000E30B8093E20B84ED90E09093E50B8093CD
:103F0000E40B80ED90E09093E70B8093E60B81ED5E
:103F100090E09093E90B8093E80B82ED90E0909312
:103F2000EB0B8093EA0B86ED90E09093ED0B809382
:103F3000EC0B1092EF0B1092F00B1092F10B109211
:103F4000F20B089508950E94001B0E94A21F0E9478
:103F50004A05C4E5DCE10E946F052097E1F30E9469
:103F6000541CF9CFCF92DF92EF92FF920F931F93E1
:103F7000CF93DF936C017A01EB01E60EF71E00E0B0
:103F800010E0CE15DF0561F06991D601ED91FC914D
:103F90000190F081E02DC6011995080F191FF1CF8E
:103FA000C801DF91CF911F910F91FF90EF90DF90AB
:103FB000CF9008956115710581F0DB010D9000200F
:103FC000E9F7AD0141505109461B570BDC01ED915A
:103FD000FC910280F381E02D199480E090E0089537
:103FE000EF92FF920F931F93CF93DF938C01FB010E
:103FF000C0E0D0E064917F018FEFE81AF80A6623F1
:1040000061F0D801ED91FC910190F081E02DC801A3
:104010001995C80FD91FF701EDCFCE01DF91CF91D0
:104020001F910F91FF90EF9008950C94DA1FDC011F
:10403000ED91FC910190F081E02D19940F931F9365
:10404000CF93DF93EC016DE00E9417208C016AE0B2
:10405000CE010E941720800F911FDF91CF911F91F9
:104060000F9108950F931F93CF93DF93EC010E945C
:10407000F01F8C01CE010E941E20800F911FDF9146
:10408000CF911F910F9108950F931F93CF93DF93BB
:10409000EC010E94DA1F8C01CE010E941E20800FCD
:1040A000911FDF91CF911F910F9108958F929F9251
:1040B000AF92BF92CF92DF92EF92FF920F931F9336
:1040C000CF93DF93CDB7DEB7A1970FB6F894DEBFDD
:1040D0000FBECDBF7C01C42EE52FCB01D22E19A27D
:1040E00021E02D1510F02AE0D22E8E010F5D1F4F1A
:1040F0008D2C912CA12CB12C6C2D7E2FA50194011F
:104100000E940B228C2DD29E80191124015011097E
:104110008A3014F4805D01C0895CF8018083211528
:1041200031054105510521F0C22EE32FCA01E4CF2C
:10413000B801C7010E94DA1FA1960FB6F894DEBF3E
:104140000FBECDBFDF91CF911F910F91FF90EF90E8
:10415000DF90CF90BF90AF909F908F900895CF92B7
:10416000DF92EF92FF920F931F93CF93DF93EC01B7
:104170006A017B012115310579F4E881F98101900B
:10418000F081E02D642FDF91CF911F910F91FF906F
:10419000EF90DF90CF9019942A303105E9F477FF42
:1041A0001AC06DE20E9417208C0144275527BA01DE
:1041B0004C195D096E097F092AE0CE010E94562044
:1041C000800F911FDF91CF911F910F91FF90EF9082
:1041D000DF90CF9008952AE0B701A601CE01DF91CC
:1041E000CF911F910F91FF90EF90DF90CF900C94A3
:1041F00056209A01AB01662757FD6095762F0C94E7
:10420000AF200F931F93CF93DF93EC019A01AB0183
:10421000662757FD6095762F0E94AF208C01CE0156
:104220000E941E20800F911FDF91CF911F910F914F
:1042300008952115310541F4DC01ED91FC910190C7
:10424000F081E02D642F19940C9456209A01462F8A
:1042500050E060E070E00C9419210F931F93CF930E
:10426000DF93EC019A01462F50E060E070E00E947D
:1042700019218C01CE010E941E20800F911FDF9119
:10428000CF911F910F9108959A01AB0160E070E00A
:104290000C9419210F931F93CF93DF93EC019A0194
:1042A000AB0160E070E00E9419218C01CE010E94F8
:1042B0001E20800F911FDF91CF911F910F910895C4
:1042C0000F931F93CF93DF93EC010E9419218C0170
:1042D000CE010E941E20800F911FDF91CF911F9170
:1042E0000F910895FC01808191810C94E322CF937A
:1042F000DF93EC0188819981009711F00E94E322FD
:10430000198218821D821C821B821A82DF91CF9132
:1043100008950F931F93CF93DF93EC018B016F5F91
:104320007F4F888199810E947223009731F0998391
:1043300088831B830A8381E001C080E0DF91CF91F5
:104340001F910F910895CF93DF93EC01888199819C
:10435000892B29F08A819B818617970760F4CE010B
:104360000E948921882341F08C819D81892B19F439
:10437000E881F981108281E0DF91CF910895EF9279
:10438000FF920F931F93CF93DF93EC017B018A0180
:10439000BA010E94A321811104C0CE010E9477219D
:1043A00007C01D830C83B701888199810E94642412
:1043B000CE01DF91CF911F910F91FF90EF90089563
:1043C000FC011182108213821282158214826115FF
:1043D000710559F0FB0101900020E9F7AF01415050
:1043E0005109461B570B0C94BF210895089597FB64
:1043F000072E16F4009407D077FD09D00E943722CB
:1044000007FC05D03EF4909581959F4F08957095D7
:1044100061957F4F0895A1E21A2EAA1BBB1BFD01D7
:104420000DC0AA1FBB1FEE1FFF1FA217B307E40793
:10443000F50720F0A21BB30BE40BF50B661F771FEB
:10444000881F991F1A9469F76095709580959095CB
:104450009B01AC01BD01CF010895EE0FFF1F059038
:10446000F491E02D19940790F691E02D1994AA1B70
:10447000BB1B51E107C0AA1FBB1FA617B70710F04F
:10448000A61BB70B881F991F5A95A9F78095909581
:10449000BC01CD010895CF93DF938230910510F4D4
:1044A00082E090E0E091750CF091760C20E030E035
:1044B000A0E0B0E0309739F14081518148175907A9
:1044C000B8F04817590771F482819381109729F049
:1044D00013969C938E9312972CC09093760C809396
:1044E000750C27C02115310531F04217530718F01C
:1044F000A901DB0101C0EF019A01BD01DF010280CA
:10450000F381E02DD7CF21153105F9F0281B390BA8
:104510002430310580F48A819B816115710521F079
:10452000FB019383828304C09093760C8093750C77
:10453000FE01329644C0FE01E20FF31F8193919376
:1045400022503109398328833AC02091730C30916D
:10455000740C232B41F4209102023091030230931A
:10456000740C2093730C20910002309101022115EC
:10457000310541F42DB73EB7409104025091050238
:10458000241B350BE091730CF091740CE217F307C8
:10459000A0F42E1B3F0B2817390778F0AC014E5FB3
:1045A0005F4F2417350748F04E0F5F1F5093740C70
:1045B0004093730C8193919302C0E0E0F0E0CF014F
:1045C000DF91CF910895CF93DF93009709F487C0CF
:1045D000FC01329713821282C091750CD091760C37
:1045E000209781F420813181280F391F8091730C2D
:1045F0009091740C8217930779F5F093740CE09303
:10460000730C6DC0DE0120E030E0AE17BF0750F440
:1046100012964D915C9113979D014115510509F139
:10462000DA01F3CFB383A28340815181840F951FB8
:104630008A179B0771F48D919C911197840F951F98
:1046400002969183808312968D919C911397938308
:1046500082832115310529F4F093760CE093750CD3
:104660003EC0D9011396FC93EE9312974D915D9144
:10467000A40FB51FEA17FB0779F480819181840F9D
:10468000951F0296D90111969C938E9382819381F6
:1046900013969C938E931297E0E0F0E08A819B81C1
:1046A000009719F0FE01EC01F9CFCE0102962881A6
:1046B0003981820F931F2091730C3091740C28174D
:1046C000390769F4309729F41092760C1092750C22
:1046D00002C013821282D093740CC093730CDF91CA
:1046E000CF9108956F927F928F929F92AF92BF92D7
:1046F000CF92DF92EF92FF920F931F93CF93DF93AE
:10470000EC01CB01209781F4DF91CF911F910F91A4
:10471000FF90EF90DF90CF90BF90AF909F908F90E1
:104720007F906F900C944B22FE01E60FF71F9E01C5
:1047300022503109E217F30708F4ACC0D9010D91FA
:104740001C91119706171707B8F00530110508F4EA
:104750009FC0A801445051094617570708F498C054
:1047600002501109061B170B019311936D937C9353
:10477000CF010E94E3228CC05B01A01AB10A4E0156
:10478000800E911EA091750CB091760C612C712C4D
:1047900060E070E0109709F449C0A815B905C9F5A3
:1047A000ED90FC901197670142E0C40ED11CCA1431
:1047B000DB0478F147018A189B08640142E0C40ECB
:1047C000D11C1296BC9012971396AC91B5E0CB1603
:1047D000D10440F0B282A38391828082D9018D936B
:1047E0009C9309C00E5F1F4F0E0D1F1DF901118311
:1047F0000083EB2DFA2F6115710531F0DB01139663
:10480000FC93EE93129744C0F093760CE093750CF2
:104810003FC06D917C9111976616770608F43B01B5
:10482000BD0112960D90BC91A02DB4CF6091730C78
:104830007091740C68157905E9F468167906D0F45E
:1048400040910002509101024115510541F44DB7CC
:104850005EB76091040270910502461B570BE41786
:10486000F507C0F4F093740CE093730CF901918395
:1048700080830EC00E944B227C01009759F0A80152
:10488000BE010E945B24CE010E94E322C70104C046
:10489000CE0102C080E090E0DF91CF911F910F9197
:1048A000FF90EF90DF90CF90BF90AF909F908F9050
:1048B0007F906F900895FB01DC0102C001900D9282
:1048C00041505040D8F70895FB01DC0101900D9252
:1048D0000020E1F70895FB0151915523A9F0BF0194
:1048E000DC014D9145174111E1F759F4CD010190DB
:1048F000002049F04D9140154111C9F3FB014111D0
:10490000EFCF81E090E00197089516E0CAE1D6E08C
:1049100000E006C022970109FE010BBF0E9433226E
:0E492000CE31D10780E00807A9F7F894FFCF49
:10492E000000770C80004261756472617465206EC0
:10493E006F7420737570706F727465640043757355
:10494E00746F6D2062697472617465206E6F74206D
:10495E00737570706F72746564207965740056009B
:10496E00760053657269616C206E756D626572209A
:10497E006E6F7420737570706F7274656400302082
:10498E003D2043414E206368616E6E656C206F70F2
:10499E00656E6564006C203D2043414E20636F6E52
:1049AE0074726F6C6C65722073657420696E206C06
:1049BE006F6F706261636B206D6F6465004C203D9C
:1049CE002043414E20636F6E74726F6C6C65722063
:1049DE00696E204C697374656E206D6F646500435B
:1049EE00203D2043414E206368616E6E656C202031
:1049FE00636C6F73656400525452206E6F74207333
:104A0E007570706F72746564005A203D2074696D04
:104A1E00657374616D7020736574006D203D207335
:104A2E006574204D61736B3A20004D203D207365F7
:104A3E00742046696C7465723A20004D6F64756C13
:104A4E006573206E6F7420737570706F7274656409
:104A5E0020796574004F424420696E7465726661F8
:104A6E006365207265616479210053544154555336
:104A7E003D49444C450041542B53415042523D3325
:104A8E002C312C22436F6E74797065222C22475084
:104A9E005253220041542B53415042523D332C313C
:104AAE002C2241504E222C227765622E6265220006
:104ABE0041542B53415042523D332C312C225553ED
:104ACE004552222C22776562220041542B534150CD
:104ADE0042523D332C312C22505744222C227765E2
:104AEE0062220041542B53415042523D312C310031
:104AFE007374617475733D41545441434845440089
:104B0E007374617475733D4552524F520024002ADE
:104B1E002A2A2A2A2A53544152542A2A2A2A2A2A2B
:104B2E00002A2A2A2A2A2A47534D20434F4E4E4501
:104B3E00435445442A2A2A2A2A2A002A2A2A2A2A79
:104B4E002A494E5445524E455420434F4E4E4543EE
:104B5E005445442A2A2A2A2A2A0041542B485454BE
:104B6E0050494E49540041542B48545450504152D0
:104B7E00413D22434944222C2231220050535246B9
:104B8E003130332C30302C30302C30302C30310052
:104B9E00505352463130332C30312C30302C303093
:104BAE002C303100505352463130332C30322C30B1
:104BBE00302C30302C303100505352463130332CA3
:104BCE0030332C30302C30302C3031005053524694
:104BDE003130332C30342C30302C30302C303100FE
:104BEE00505352463130332C30352C30302C30303F
:104BFE002C303100505352463130332C30302C3063
:104C0E00312C30302C30310041542B4854545050FC
:104C1E004152413D2255524C222C226E616D6B69E0
:104C2E006E672E62652F70726F6A6563742F696E80
:104C3E006465782E7068703F6E616D653D74657346
:104C4E0074220041542B48545450414354494F4E02
:104C5E003D3000202069643A200020207274723AA0
:104C6E002000203D3E200020646174613A20200027
:104C7E002C00726571756573743A0043414E204283
:104C8E00555320696E6974206F6B210043414E208D
:104C9E0042555320696E6974206661696C005765D0
:104CAE002077696C6C2074727920616761696E007F
:104CBE005363616E207374617274656420666F72E3
:104CCE00207374616E646172642049442773206698
:104CDE00726F6D20307830303020746F203078371E
:104CEE00464600547279696E672049443A20000D99
:104CFE000A2D2D2D2D2D2D2D2D2D2D2D2D2D2D2DF9
:104D0E002D2D2D2D2D2D2D2D2D2D2D2D2D2D2D2DC5
:104D1E002D2D2D2D2D2D2D2D2D2D2D2D2D2D2D2DB5
:104D2E002D2D2D2D2D2D2D2D2D2D2D2D2D2D2D2DA5
:104D3E002D2D2D0047657420446174612046726FDD
:104D4E006D2069643A20003078000900456E746564
:104D5E00722073657474696E67206D6F646520666A
:104D6E00616C6C0D0A00456E746572207365747407
:104D7E00696E67206D6F6465207375636365737309
:104D8E00200D0A0073657420726174652066616C73
:104D9E006C21210D0A007365742072617465207395
:104DAE0075636365737321210D0A00456E74657218
:104DBE00204E6F726D616C204D6F64652046616C84
:104DCE006C21210D0A00456E746572204E6F726D56
:104DDE00616C204D6F646520537563636573732139
:104DEE00210D0A00426567696E20746F2073657429
:104DFE00204D61736B21210D0A00456E7465722082
:104E0E006E6F726D616C206D6F64652066616C6C87
:104E1E000D0A00736574204D61736B2073756363A7
:104E2E0065737321210D0A00426567696E20746FE8
:104E3E00207365742046696C74657221210D0A0019
:104E4E00456E746572206E6F726D616C206D6F644D
:104E5E00652066616C6C0D0A5365742066696C740E
:104E6E006572206661696C21210D0A0073657420DC
:104E7E0046696C7465722073756363657373212163
:104E8E000D0A00415445000D0041542B434E4D492F
:104E9E003D322C30002B43504D533A0041542B439E
:104EAE00504D533D22534D222C22534D222C225332
:104EBE004D220053485554204F4B00415426460076
:104ECE004154453000415400000000001013000012
:104EDE000000DD151717B5151B171F172317C80769
:104EEE00D207020000000000671759170000FEFFEE
:104EFE000000101300000000D41CB21F251C401C23
:044F0E00321CB21C83
:00000001FF
